:100000000C9446000C9463000C9463000C94630001
:100010000C9463000C9463000C9463000C946300D4
:100020000C9463000C9463000C9463000C946300C4
:100030000C9463000C9463000C9463000C946300B4
:100040000C9463000C9463000C9463000C946300A4
:100050000C9463000C9463000C9463000C94630094
:100060000C9463000C9463000C9463000C94630084
:100070000C9463000C9463000C9463000C94630074
:100080000C9463000C9463000C94630011241FBE55
:10009000CFEFD0E1DEBFCDBF11E0A0E0B1E0E8E7F7
:1000A000F6E002C005900D92AC31B107D9F711E02E
:1000B000ACE1B1E001C01D92AC35B107E1F70E949F
:1000C00060020C943A030C94000087B3876087BBEE
:1000D00088B3887F88BB80E58DB981E08EB90895AB
:1000E0008FB9779BFECF0895282FC09884E88FB9E9
:1000F000779BFECF8FEF8FB9779BFECF9FB9779B12
:10010000FECF2FB9779BFECF6FB9779BFECFC09AFA
:100110000895282FC09884ED8FB9779BFECF8FEF7D
:100120008FB9779BFECF9FB9779BFECF2FB9779B77
:10013000FECF8FEF8FB9779BFECF8FEF8FB9779B75
:10014000FECF8FB1C09A08958FB9779BFECF0895E7
:10015000982F88EF8FB9779BFECF892F807F8FB93B
:10016000779BFECF9295907F9FB9779BFECF88EBD0
:100170008A95F1F70895982F8AEF8FB9779BFECF74
:10018000892F807F8FB9779BFECF9295907F9FB903
:10019000779BFECF88EB8A95F1F70895CF92DF9297
:1001A000EF92FF920F931F93CF93DF936C0182E046
:1001B0000E94A800C0E0D0E0F601EC0FFD1F808196
:1001C0000E94BB002196C031D105B1F77601E6014E
:1001D00000E288A10E94BB000F5F21960033C9F79F
:1001E00010E1F70180890E94BB001F5F0894E11CA9
:1001F000F11C1032B1F7E601E09689910E94BB0034
:100200000F5F0034D1F7DF91CF911F910F91FF90D5
:10021000EF90DF90CF9008951F93FC019B0110E3B6
:1002200043C0433021F1443028F44130B1F1423031
:10023000C1F528C0443069F0453099F5C90160E145
:1002400077E20E941F03605D6083C90160E177E28D
:100250000AC0C90168EE73E00E941F03605D6083FD
:10026000C90168EE73E00E941F039C011BC0C90115
:1002700064E670E00E941F03605D6083C90164E66C
:1002800070E0F1CFC9016AE070E00E941F03605D79
:100290006083C9016AE070E0E6CF205D20832053CF
:1002A00001C0108341503196442309F0BACF1F9109
:1002B0000895CF92DF92EF92FF920F931F93CF9307
:1002C000DF93FC01EB01CD2FDD27C295CF7027E333
:1002D000D22EDC0E90E3E92EEC0EA72FBB27AF70D9
:1002E000B07017E3F12EFA0E0A2F005D9B0154E067
:1002F000369527955A95E1F72F703070822F122F7F
:10030000195C805D90E3C92E6F707070562F505D40
:10031000962F995C2AC04230B9F0433018F441302E
:1003200009F519C0433049F04430E1F4CA30D10531
:1003300010F0D08218C0E08216C0AA30B10510F0CB
:10034000F08211C000830FC02A30310510F01083F5
:100350000AC0808308C06A30710510F0908303C022
:10036000508301C0C082415031964423A1F6DF91F1
:10037000CF911F910F91FF90EF90DF90CF90089554
:1003800087B3876087BB88B3887F88BB80E58DB9DA
:1003900081E08EB98CE00E94A80081E00E94A80054
:1003A00086E69EE00197F1F78CE191E060E270E073
:1003B00040E450E00E9433030895AF92BF92CF9281
:1003C000DF92EF92FF920F93DF93CF93CDB7DEB71B
:1003D0000D85AE84BF84E888F9880295007F8C85FE
:1003E000080FDE0152965DC0013408F05FC08C3505
:1003F00051F40894E11CF11C9501200F311DF70107
:100400008081F90149C0853209F043C00894E11C9C
:10041000F11CF7018081843611F0843499F408943A
:10042000E11CF11C52E0C52ED12CCA0EDB1E6D91D1
:100430007C91F70140814053C501800F911D0E94BE
:100440000C0121C0833611F0833439F4F501E00F3B
:10045000F11D8C918083129620C0883711F0883569
:10046000E1F40894E11CF11C42E0C42ED12CCA0E28
:10047000DB1E6D917C91F70140814053C501800FD7
:10048000911D0E9459010153F7018081080FD60187
:1004900004C0F501E00FF11D80830894E11CF11CFC
:1004A0000F5FF7018081882309F09ECFCF91DF9104
:1004B0000F91FF90EF90DF90CF90BF90AF90089595
:1004C0005F926F927F928F929F92AF92BF92CF92E4
:1004D000DF92EF92FF920F931F93DF93CF93CDB7ED
:1004E000DEB7CF5FD0400FB6F894DEBF0FBECDBFF2
:1004F0008FEF8ABB0E94650000E010E0B3E3EB2EB3
:10050000B7E0FB2EC801602F0E947400C70101975D
:10051000F1F70F5F1F4F0F3F1105A1F700E010E04B
:100520006E010894C11CD11CA3E3EA2EA7E0FA2EA9
:10053000C8010E948900F601E00FF11F8083C70106
:100540000197F1F70F5F1F4F0F3F110589F70E94C9
:10055000C00100D000D000D0EDB7FEB73196ADB7E6
:10056000BEB711961C9211820CE111E01383028335
:1005700080E091E0958384830E94DD01EDB7FEB7B2
:100580003196ADB7BEB711961C9281E0818313837B
:1005900002838DE091E0958384830E94DD018DB715
:1005A0009EB706960FB6F8949EBF0FBE8DBFC801CA
:1005B0000E94CE007601FBE05F2ECC24C394D02EA7
:1005C000012FE8E16E2EE1E07E2E78EB872E912C54
:1005D000A12C61E0B62EAC0EBD1EADB7BEB718970C
:1005E0000FB6F894BEBF0FBEADBFEDB7FEB73196E4
:1005F00011965C92C182D282038375826482D70194
:100600008C91868317820E94DD018DB79EB7089674
:100610000FB6F8949EBF0FBE8DBF8D2D902F0E94F8
:10062000CE0080E197E2F4013197F1F70197D9F715
:100630000894E11CF11CEA14FB0479F6FFCFAA1B15
:10064000BB1B51E107C0AA1FBB1FA617B70710F0BD
:10065000A61BB70B881F991F5A95A9F780959095EF
:10066000BC01CD010895DC0101C06D9341505040A3
:08067000E0F70895F894FFCFB4
:10067800C9EEDBDACEA2D1A9B5E7D7D300B6C1C897
:0C068800A1666C6173683A0025643300C1
:00000001FF
