:100506004154343544425858204578616D706C65C5
:100516000050726F6772616D3A204F4B210056652D
:10052600726966793A204F4B21004F757470757465
:080536003A003078257832000C
:1005FF0043D40C53F1F343B167E4FF0FBFFFFCE5A6
:0A060F00B130E7FB43A901E4F5B2A6
:0106190022BE
:0406930043B2032249
:10053E005388CF5389F0438901438E04E4FDFCC3F5
:10054E00ED9FEC9E5016C28C758CD1758A20D28C84
:0C055E00308DFDC28D0DBD00010C80E34E
:01056A00226E
:1005980012068BED54F0FF12068BEDC454F0FF12D7
:0D05A800068B7F4B7E001205B57F0A7E009A
:0B05B500EF1FAC0670011E4C70F62218
:10064A0075E10343D48043A4C175A14075F80175CF
:03065A00A22F22AA
:0F0633001206427FFF1206427F00120642AF03FB
:08064200C2FF8FA330FFFD226F
:10061A00AB07AA06C2871205B17F84120633AF055B
:09062A001206421205B1D287222A
:0405C000AB07AA06D5
:1005C400C2871205B17FD41206337FFF120642128E
:0B05D4000642ADA31205B1D287AF05AF
:0105DF0022F9
:10065D0043E10343D48043A4C175A14075F80175EE
:03066D00A22F2297
:10056B007F301206707F0C1206707F011206707FAF
:10057B00021206707F801206707F027E0012053E0B
:0D058B007F407D207B007A00794B02024901
:08068B00C2FF8FA330FFFD2226
:0F067000AD07D2871205B17FF8120598C2872215
:1005E000AB28AA29A92A852B82758300120193FFC3
:0F05F000AD07D2871205B17FFA120598C2872294
:0604B8007B007A00794B85
:0604BE008B288A29892A1F
:1004C4007F02120670E4F52B1205E0052BE52BC321
:1004D400941040F4752B201205E0052BE52BC394F2
:1004E4003040F4752B101205E0052BE52BC3942046
:1004F40040F4752B301205E0052BE52BC3944040E6
:01050400F402
:0105050022D3
:100275008B438A4489458C468D47E54870030203C4
:100285004D14700302032614606F14604B1460272D
:10029500146003020332AE46AF477C277D1012017E
:1002A500F4EF2430AB43AA44A9451201C0AE46AFD2
:1002B500477C277D108061AE46AF477C037DE81201
:1002C50001F4EF2430AB43AA44A9451201C0AE4660
:1002D500AF477C037DE88040AE46AF477C007D6438
:1002E5001201F4EF2430AB43AA44A9451201C0AE74
:1002F50046AF477C007D64801FAE46AF477C007DDE
:100305000A1201F4EF2430AB43AA44A9451201C0F7
:10031500AE46AF477C007D0A1201F48C468D4780BE
:1003250017E5472430AB43AA44A9458008AB43AA47
:1003350044A94574301201C0154874012545F54599
:09034500E43544F54402027F2274
:040421008C468D4731
:10042500E54870030204B714605B14603514601A64
:1004350014706EE546C4540FF54A754900D3940906
:10044500E5499400E54A4055804FE5467549005415
:100455000FF54AD39409E5499400E54A40028039ED
:10046500803BE546C4F854F0C8E547C4540F4875C9
:100475004900540FF54AD39409E5499400E54A40EB
:100485000280168018754900E547540FF54AD39444
:1004950009E5499400E54A40042437800624308064
:1004A5000274301201C01548740129F9E43AFA02C0
:0204B50004251C
:0104B7002222
:080003007B007A00794BE4FF59
:06000B008B2A8A2B892CD0
:10001100EDC454F02FF53F75400075410075423035
:10002100AB2DAA2EA92F12017AFF7003020179E5E7
:100031003FD394404003020179EFB45C1174012570
:100041002FF52FE4352EF52EAB2DFA020155AB2DF0
:10005100AA2EA92F12017A642560030201510425F9
:100061002FF52FE4352EF52EFAA92F12017AFF6410
:10007100646005EF6444704A7401252FF52FE4355F
:100081002EF52EAB2A7E00E52C253FF9EE352BFA15
:10009100C003C002C001AB400542E542AA41700263
:1000A100054114F912017AFD7C00AB2DAA2EA92F6E
:1000B10012017A24D0F548D001D002D00312027582
:1000C100807DAB2DAA2EA92F12017AFF64636004F3
:1000D100EFB44310AB400542E542AA41700205412D
:1000E10014F98072AB2DAA2EA92F12017AFF647820
:1000F1006005EF645870717401252FF52FE4352EDA
:10010100F52EAB2A7E00E52C253FF9EE352BFAC002
:1001110003C002C001AB400542E542AA417002059D
:100121004114F912017AFD7C00AB2DAA2EA92F12E0
:10013100017A24D0F548D001D002D003120421ABBA
:100141002DAA2EA92F12017A24CF253FF53F801821
:10015100AB2DAA2EA92F12017AAB2AAA2BA92C8585
:100161003F827583001201D27401252FF52FE435EA
:080171002EF52E053F020021CE
:010179002263
:10034E0053D9BF75E2401205FF7F647E0012053E51
:10035E0012065D12056B752DFF752E05752F067B2A
:10036E00007A00794BE4FDFF12000B752DFF752E00
:10037E0005752F177D01120003752DFF752E05755E
:10038E002F247D02120003752DFF752E05752F305B
:10039E007B007A00794B7D03E4FF12000B1204B848
:1003AE00E4F508AF087E00AD0812061A7F017E0044
:1003BE0012053E0508E508C3941D40E7E4F508AFB5
:1003CE00087E001205C074092508F8A6077F017E75
:1003DE000012053E0508E508C3941D40E2E4F50849
:1003EE00752DFF752E05752F3874092508F8E6F55D
:1003FE00307B007A00794B7D037F0812000B1204CC
:10040E00B87FE87E0312053E0508E508C3941D403B
:03041E00CF80FE8E
:0300000002067F76
:0C067F00787FE4F6D8FD75818A02034EF6
:10017A00BB010689828A83E0225002E722BBFE0283
:09018A00E32289828A83E49322B6
:10019300BB010CE58229F582E5833AF583E0225021
:1001A30006E92582F8E622BBFE06E92582F8E2226B
:0D01B300E58229F582E5833AF583E4932285
:1001C000BB010689828A83F0225002F722BBFE011E
:0201D000F32218
:1001D200F8BB010DE58229F582E5833AF583E8F063
:1001E200225006E92582C8F622BBFE05E92582C80F
:0201F200F222F7
:1001F400BC000BBE0029EF8DF084FFADF022E4CCEF
:10020400F875F008EF2FFFEE33FEEC33FCEE9DECB7
:10021400984005FCEE9DFE0FD5F0E9E4CEFD22EDFD
:10022400F8F5F0EE8420D21CFEADF075F008EF2F47
:10023400FFED33FD4007985006D5F0F222C398FD38
:050244000FD5F0EA22D5
:10024900EF4E6012EF60010EEDBB010B89828A83CC
:10025900F0A3DFFCDEFA2289F05007F709DFFCA9D9
:0C026900F022BBFEFCF309DFFCA9F02230
:00000001FF
