:020000040800F2
:1000000078060020D50100089F0600089706000822
:100010009B06000819050008410C000800000000BC
:10002000000000000000000000000000E1080008DF
:100030001D05000800000000A1060008CD09000809
:10004000EF010008EF010008EF010008EF010008D0
:10005000EF010008EF010008EF010008EF010008C0
:10006000EF010008EF010008EF010008EF010008B0
:10007000EF010008EF010008EF010008EF010008A0
:10008000EF010008EF010008EF010008EF01000890
:10009000EF010008EF010008EF010008EF01000880
:1000A000EF010008EF010008EF010008EF01000870
:1000B000EF010008EF010008EF010008EF01000860
:1000C000EF010008EF010008EF010008EF01000850
:1000D000EF010008EF010008EF010008EF01000840
:1000E000EF010008EF010008EF010008EF01000830
:1000F000EF010008EF010008EF010008EF01000820
:10010000EF010008EF010008EF010008EF0100080F
:10011000EF010008EF010008EF010008EF010008FF
:10012000EF010008EF010008EF010008EF010008EF
:1001300000F002F800F03FF80AA090E8000C8244BA
:100140008344AAF10107DA4501D100F034F8AFF297
:10015000090EBAE80F0013F0010F18BFFB1A43F0A5
:1001600001031847780C0000980C0000103A24BFD7
:1001700078C878C1FAD8520724BF30C830C144BF0C
:1001800004680C607047000000230024002500264E
:10019000103A28BF78C1FBD8520728BF30C148BFEA
:1001A0000B607047782900F07780002070471FB5FA
:1001B0001FBD10B510BD00F027F91146FFF7F7FF7E
:1001C00000F056FD00F045F903B4FFF7F2FF03BC61
:1001D00000F038FD0948804709480047FEE7FEE780
:1001E000FEE7FEE7FEE7FEE7FEE7FEE7FEE7FEE7E7
:1001F00004480549054A064B70470000D10900082C
:1002000031010008780000207806002078020020E4
:1002100078020020704700000FB4044910B503AA0B
:10022000029800F0C3F810BC5DF814FB0000002039
:100230002DE9F0410E460446002020622046E16888
:10024000884730B3252805D0D4E901219047206A9A
:10025000401CF2E7E168204600278847050018D0D7
:10026000A5F14100192802D820354FF40067324625
:10027000294620462760FFF795FF40B1012804D0AA
:10028000F61D26F007060836D8E7361DD6E72846BD
:10029000DAE7206ABDE8F08170B504460D462146D4
:1002A0001068AFF300802188090502D50F4A7A440F
:1002B00002E00E4A7A440E32002104F1240305E0E4
:1002C00000F00F060009965D5E54491C0028F7D126
:1002D00020780023000704D5702D02D009B1022335
:1002E00011322046BDE8704000F006B8BA0A00009E
:1002F00070477047704770472DE9F0470D469946A3
:100300009246044600F124080168880604D5E06995
:1003100021F01001216000E00120A84201DD471B0F
:1003200000E00027A1697A1902EB0900081AA06110
:100330002078C00602D42046AFF30080002608E0F3
:10034000D4E901211AF806009047206A401C761C67
:1003500020624E45F4DB2078C0060AD52046AFF374
:10036000008006E0D4E9012130209047206A401C3B
:100370002062381EA7F10107F4DC07E0D4E901216F
:1003800018F805009047206A401C2062281EA5F13D
:100390000105F3DC2046AFF300802078000602D58B
:1003A0000220BDE8F0870120FBE70000074B70B595
:1003B0000D467B4400F011F80446284600F020F872
:1003C00010B14FF0FF3070BD204670BD970800009F
:1003D00001694A1C02610878704700B58FB0CDE909
:1003E00001310021059105497944CDE903101146F9
:1003F0006846FFF71DFF0FB000BD0000E5FFFFFFDF
:10040000007B00F080007047754600F02BF8AE4688
:1004100005006946534620F00700854618B020B510
:10042000FFF7E6FEBDE820404FF000064FF0000762
:100430004FF000084FF0000B21F00701AC46ACE88C
:10044000C009ACE8C009ACE8C009ACE8C0098D46F9
:10045000704710B50446AFF300802046BDE8104059
:10046000FFF7B2BE004870471800002010B51021F9
:10047000094800F00CF9D72000F0A8F900BF00F0FF
:100480008BF9C4B204F080000028F8D01021024893
:1004900000F0FFF810BD00000008014008B500F0B2
:1004A000BBF90AA0FFF7B8FE1020ADF800008DF8E8
:1004B000030003208DF802006946084800F05CF84C
:1004C0001021064800F0E5F808BD0000535049200F
:1004D0006973207265616479210D0A00000801408A
:1004E00070B50546FFF7C2FF10210A4800F0CFF8AB
:1004F0009F2000F06BF9002404E000F04DF928552E
:10050000601CC4B2042CF8DB1021024800F0C1F8D2
:1005100070BD00000008014000BFFEE7704700E02A
:10052000401E0028FCD1704708B50121802000F052
:10053000B9F84FF47070ADF8000003208DF8020098
:1005400010208DF803006946014800F015F808BD39
:10055000001C014008B5E020ADF8000018208DF81F
:10056000030003208DF802006946024800F004F8F9
:1005700008BD0000000801402DE9F04102460025B9
:100580000026002000230024002791F803C00CF06F
:100590000F0591F803C00CF0100CBCF1000F03D054
:1005A00091F802C04CEA050591F800C0BCF1000FBB
:1005B00031D0146800202BE04FF0010C0CFA00F34E
:1005C000B1F800C00CEA03069E4220D183004FF030
:1005D0000F0C0CFA03F7BC4305FA03FC4CEA0404C5
:1005E00091F803C0BCF1280F06D14FF0010C0CFAB2
:1005F00000FCC2F814C00AE091F803C0BCF1480F37
:1006000005D14FF0010C0CFA00FCC2F810C0401CE0
:100610000828D1D31460B1F800C0BCF1FF0F34DD5D
:10062000546800202EE000F1080C4FF0010808FA91
:100630000CF3B1F800C00CEA03069E4221D18300FE
:100640004FF00F0C0CFA03F7BC4305FA03FC4CEA1D
:10065000040491F803C0BCF1280F05D100F1080C87
:1006600008FA0CF8C2F8148091F803C0BCF1480FE6
:1006700007D100F1080C4FF0010808FA0CF8C2F895
:100680001080401C0828CED35460BDE8F081416141
:1006900070470161704700BFFEE700BFFEE770478B
:1006A0007047000029B1064A92690243044B9A61DF
:1006B00004E0034A92698243014B9A61704700004B
:1006C0000010024030B500210022002400232D4DEF
:1006D0006D6805F00C0121B1042905D0082923D14A
:1006E00005E0294D056022E0274D05601FE0254DFE
:1006F0006D6805F47012234D6D6805F48034022591
:1007000005EB92421CB9214D554305600BE01D4D90
:100710006D6805F400351DB11C4D5543056002E0C0
:10072000194D5543056002E0174D056000BF00BF3D
:10073000144D6D6805F0F0010909154D6B5C0568F5
:10074000DD4045600F4D6D6805F4E061090A104D0C
:100750006B5C4568DD4085600A4D6D6805F460514D
:10076000C90A0B4D6B5C4568DD40C560054D6D6881
:1007700005F44041890B074D6B5CC568B5FBF3F58B
:10078000056130BD0010024000127A0000093D00F2
:10079000040000201400002010B500BF02210A4808
:1007A00000F068F80028F9D00021074800F06EF842
:1007B00000BF0121044800F05DF80028F9D002488C
:1007C00000F061F810BD00000030014010B5044693
:1007D00000BF0221094800F04DF80028F9D0214659
:1007E000064800F053F800BF0121044800F042F829
:1007F0000028F9D0014800F046F810BD0030014053
:1008000021B1028842F04002028004E002884FF6E3
:10081000BF731A400280704700B585B000F056F8EB
:100820002020ADF80C000020ADF800004FF48270DD
:10083000ADF802000020ADF804000220ADF806007B
:100840000120ADF808004002ADF80A000020ADF824
:100850000E000720ADF810006946054800F018F8B2
:10086000FFF778FE01210248FFF7CAFF05B000BD7F
:10087000003001400246002013890B400BB10120DB
:1008800000E00020704701468889704781817047E9
:1008900010B50022028802F441520B884C88234391
:1008A0008C882343CC8823430C8923434C892343DE
:1008B0008C892343CC8923431A430280838B4FF2D4
:1008C000FF74234083830B8A038210BD10B501217E
:1008D0000520FFF7E7FE01210803FFF7E3FE10BD47
:1008E000704710B500F002F810BD00000CB50020F4
:1008F000019000903348006840F48030314908602E
:1009000000BF3048006800F4003000900198401C9F
:100910000190009818B90198B0F5A06FF1D129485D
:10092000006800F4003010B10120009001E00020C8
:1009300000900098012843D12348006840F010003F
:10094000214908600846006820F003000860084656
:10095000006840F0020008601A4840681949486081
:100960000846406848600846406840F48060486037
:100970000846406820F47C1048600846406840F40F
:10098000E81048600846006840F08070086000BFCA
:100990000C48006800F000700028F9D00948406851
:1009A00020F00300074948600846406840F0020014
:1009B000486000BF0348406800F00C000828F9D1E7
:1009C0000CBD0000001002400020024070470000F3
:1009D00010B51348006840F001001149086008464E
:1009E0004068104908400E494860084600680E49B2
:1009F00008400B4908600846006820F48020086021
:100A00000846406820F4FE0048604FF41F008860EC
:100A1000FFF767FF4FF000600449086010BD000059
:100A2000001002400000FFF8FFFFF6FE08ED00E0B6
:100A300001F40072B2F5007F00D100BFCA4302800A
:100A4000704721B1828942F40052828104E0828998
:100A50004DF6FF731A4082817047000000B585B0E3
:100A6000012144F20400FFF71DFE4FF40070ADF8C1
:100A7000100018208DF8130003208DF8120004A92F
:100A80001C48FFF779FD4FF48060ADF8100004209A
:100A90008DF8130003208DF8120004A91548FFF704
:100AA0006BFD4FF4E13000900020ADF80400ADF88C
:100AB0000600ADF80800ADF80C000C20ADF80A00F7
:100AC00069460D4800F04CF840210B48FFF7B0FF95
:100AD000012240F22551084800F01DF8012240F2A1
:100AE0002771054800F017F801210348FFF7A9FF17
:100AF00005B000BD0008014000380140024600205A
:100B0000B1F5007F00D100BF13880B400BB101206D
:100B100000E000207047F0B50346002400260025C1
:100B2000002040F66A17B94200D100BF1846C1F351
:100B3000421401F01F06012707FA06F5012C01D126
:100B40000C3004E0022C01D1103000E014301AB156
:100B500007682F43076002E00768AF430760F0BDF6
:100B60002DE9F04786B005460E460024A24600BF98
:100B7000A1460027B08900B100BF2F462C8A4CF651
:100B8000FF700440F08804432C82AC894EF6F310C9
:100B90000440B08831890843718908430443AC811B
:100BA000AC8A4FF6FF400440B0890443AC8201A8F0
:100BB000FFF788FD1F48874202D1DDF810A001E051
:100BC000DDF80CA0A88900F4004040B10AEBCA008F
:100BD00000EB0A1031684900B0FBF1F807E00AEBBE
:100BE000CA0000EB0A1031688900B0FBF1F86420FC
:100BF000B8FBF0F004012009642101FB1089A889E9
:100C000000F4004040B1322000EBC900B0FBF1F02D
:100C100000F00700044308E0322000EB09106421D3
:100C2000B0FBF1F000F00F0004432C8106B0BDE8EA
:100C3000F087000000380140C1F30802828070474D
:100C400000BFFEE7014600BF7047000070B50446D4
:100C50000D46E1B20548FFF7EFFF00BF4021034812
:100C6000FFF74CFF0028F9D0204670BD0038014046
:100C700008B50024FFF758FCFFF7F0FE2948FFF7FE
:100C8000CBFAFFF70BFC28A0FFF7C6FA6846FFF780
:100C900027FC2CA0FFF7C0FA00BF06E01DF80410E7
:100CA0002CA0FFF7B9FA601CC4B2042CF6DB2BA011
:100CB000FFF7B2FA35E040212948FFF7EAFC80212E
:100CC0002748FFF7E6FC4FF480712548FFF7E1FC69
:100CD0004FF400712248FFF7DCFC2248FFF71FFCAD
:100CE0002048FFF71CFC2048FFF719FC40211C4856
:100CF000FFF7CDFC80211A48FFF7C9FC4FF4807143
:100D00001748FFF7C4FC4FF400711548FFF7BFFC0C
:100D10001448FFF704FC1348FFF701FC1248FFF7E3
:100D2000FEFBC8E7940D000841543435444258583E
:100D300020686164206265656E20496E6974210DCA
:100D40000A00000041543435444258582049442098
:100D50006973000020307825782000000D0A00001B
:100D6000001C0140FFFF0F00FFFF05003031323350
:100D700034353637383941424344454640305800CF
:100D80003031323334353637383961626364656601
:100D9000403078000D0A2A2A2A2A2A2A2A2A2A2AB0
:100DA0002A2A2A2A2A2A2A2A2A2A2A2A2A2A2A2AA3
:100DB0002A2A2A2A2A2A2A2A2A2A2A2A2A2A2A2A93
:100DC0002A2A2A2A2A2A2A2A2A2A2A2A2A2A2A2A83
:100DD0002A2A2A2A2A2A0D0A00000000FC0D0008EF
:100DE00000000020180000006C010008140E00082C
:100DF00018000020600600008801000800000000C4
:100E000000000000010203040102030406070809B0
:040E100002040608CA
:0400000508000131BD
:00000001FF
